{
    "contractName": "NFT",
    "abi": [
        {
            "inputs": [
                {
                    "internalType": "address",
                    "name": "_reward",
                    "type": "address"
                }
            ],
            "stateMutability": "nonpayable",
            "type": "constructor"
        },
        {
            "inputs": [],
            "name": "TransferFailed",
            "type": "error"
        },
        {
            "anonymous": false,
            "inputs": [
                {
                    "indexed": true,
                    "internalType": "address",
                    "name": "owner",
                    "type": "address"
                },
                {
                    "indexed": true,
                    "internalType": "address",
                    "name": "approved",
                    "type": "address"
                },
                {
                    "indexed": true,
                    "internalType": "uint256",
                    "name": "tokenId",
                    "type": "uint256"
                }
            ],
            "name": "Approval",
            "type": "event"
        },
        {
            "anonymous": false,
            "inputs": [
                {
                    "indexed": true,
                    "internalType": "address",
                    "name": "owner",
                    "type": "address"
                },
                {
                    "indexed": true,
                    "internalType": "address",
                    "name": "operator",
                    "type": "address"
                },
                {
                    "indexed": false,
                    "internalType": "bool",
                    "name": "approved",
                    "type": "bool"
                }
            ],
            "name": "ApprovalForAll",
            "type": "event"
        },
        {
            "anonymous": false,
            "inputs": [
                {
                    "indexed": true,
                    "internalType": "address",
                    "name": "previousOwner",
                    "type": "address"
                },
                {
                    "indexed": true,
                    "internalType": "address",
                    "name": "newOwner",
                    "type": "address"
                }
            ],
            "name": "OwnershipTransferred",
            "type": "event"
        },
        {
            "anonymous": false,
            "inputs": [
                {
                    "indexed": false,
                    "internalType": "address",
                    "name": "account",
                    "type": "address"
                }
            ],
            "name": "Paused",
            "type": "event"
        },
        {
            "anonymous": false,
            "inputs": [
                {
                    "indexed": true,
                    "internalType": "address",
                    "name": "from",
                    "type": "address"
                },
                {
                    "indexed": true,
                    "internalType": "address",
                    "name": "to",
                    "type": "address"
                },
                {
                    "indexed": true,
                    "internalType": "uint256",
                    "name": "tokenId",
                    "type": "uint256"
                }
            ],
            "name": "Transfer",
            "type": "event"
        },
        {
            "anonymous": false,
            "inputs": [
                {
                    "indexed": false,
                    "internalType": "address",
                    "name": "account",
                    "type": "address"
                }
            ],
            "name": "Unpaused",
            "type": "event"
        },
        {
            "anonymous": false,
            "inputs": [
                {
                    "indexed": false,
                    "internalType": "address",
                    "name": "_seller",
                    "type": "address"
                },
                {
                    "indexed": false,
                    "internalType": "address",
                    "name": "_buyer",
                    "type": "address"
                },
                {
                    "indexed": false,
                    "internalType": "uint256",
                    "name": "_price",
                    "type": "uint256"
                },
                {
                    "indexed": false,
                    "internalType": "uint256",
                    "name": "tokenID",
                    "type": "uint256"
                }
            ],
            "name": "buyNFT",
            "type": "event"
        },
        {
            "anonymous": false,
            "inputs": [
                {
                    "indexed": false,
                    "internalType": "uint256",
                    "name": "tokenId",
                    "type": "uint256"
                },
                {
                    "indexed": false,
                    "internalType": "uint256",
                    "name": "price",
                    "type": "uint256"
                },
                {
                    "indexed": false,
                    "internalType": "address",
                    "name": "seller",
                    "type": "address"
                }
            ],
            "name": "sellNFT",
            "type": "event"
        },
        {
            "inputs": [
                {
                    "internalType": "address[]",
                    "name": "_addresses",
                    "type": "address[]"
                },
                {
                    "internalType": "string[]",
                    "name": "_tokenURI",
                    "type": "string[]"
                },
                {
                    "internalType": "uint256[]",
                    "name": "_tokenIds",
                    "type": "uint256[]"
                }
            ],
            "name": "airdropMint",
            "outputs": [],
            "stateMutability": "nonpayable",
            "type": "function"
        },
        {
            "inputs": [
                {
                    "internalType": "address",
                    "name": "to",
                    "type": "address"
                },
                {
                    "internalType": "uint256",
                    "name": "tokenId",
                    "type": "uint256"
                }
            ],
            "name": "approve",
            "outputs": [],
            "stateMutability": "nonpayable",
            "type": "function"
        },
        {
            "inputs": [
                {
                    "internalType": "uint256",
                    "name": "_tokenID",
                    "type": "uint256"
                },
                {
                    "internalType": "bool",
                    "name": "_status",
                    "type": "bool"
                }
            ],
            "name": "approveBid",
            "outputs": [],
            "stateMutability": "nonpayable",
            "type": "function"
        },
        {
            "inputs": [
                {
                    "internalType": "address",
                    "name": "owner",
                    "type": "address"
                }
            ],
            "name": "balanceOf",
            "outputs": [
                {
                    "internalType": "uint256",
                    "name": "",
                    "type": "uint256"
                }
            ],
            "stateMutability": "view",
            "type": "function"
        },
        {
            "inputs": [
                {
                    "internalType": "uint256",
                    "name": "_tokenID",
                    "type": "uint256"
                },
                {
                    "internalType": "uint256",
                    "name": "_amount",
                    "type": "uint256"
                }
            ],
            "name": "bidNFT",
            "outputs": [],
            "stateMutability": "nonpayable",
            "type": "function"
        },
        {
            "inputs": [
                {
                    "internalType": "uint256",
                    "name": "tokenId",
                    "type": "uint256"
                }
            ],
            "name": "burn",
            "outputs": [],
            "stateMutability": "nonpayable",
            "type": "function"
        },
        {
            "inputs": [
                {
                    "internalType": "uint256",
                    "name": "tokenId",
                    "type": "uint256"
                },
                {
                    "internalType": "uint256",
                    "name": "_price",
                    "type": "uint256"
                }
            ],
            "name": "buyNft",
            "outputs": [],
            "stateMutability": "nonpayable",
            "type": "function"
        },
        {
            "inputs": [
                {
                    "internalType": "uint256",
                    "name": "_tokenId",
                    "type": "uint256"
                }
            ],
            "name": "cancelBidNFT",
            "outputs": [],
            "stateMutability": "nonpayable",
            "type": "function"
        },
        {
            "inputs": [
                {
                    "internalType": "uint256",
                    "name": "_tokenId",
                    "type": "uint256"
                }
            ],
            "name": "cancelSellNft",
            "outputs": [],
            "stateMutability": "nonpayable",
            "type": "function"
        },
        {
            "inputs": [],
            "name": "contractStatus",
            "outputs": [
                {
                    "internalType": "bool",
                    "name": "",
                    "type": "bool"
                }
            ],
            "stateMutability": "view",
            "type": "function"
        },
        {
            "inputs": [
                {
                    "internalType": "uint256",
                    "name": "tokenId",
                    "type": "uint256"
                }
            ],
            "name": "getApproved",
            "outputs": [
                {
                    "internalType": "address",
                    "name": "",
                    "type": "address"
                }
            ],
            "stateMutability": "view",
            "type": "function"
        },
        {
            "inputs": [
                {
                    "internalType": "uint256",
                    "name": "",
                    "type": "uint256"
                }
            ],
            "name": "idToDetail",
            "outputs": [
                {
                    "internalType": "address",
                    "name": "_sellerAddress",
                    "type": "address"
                },
                {
                    "internalType": "uint256",
                    "name": "_price",
                    "type": "uint256"
                },
                {
                    "internalType": "address",
                    "name": "_buyerAddress",
                    "type": "address"
                },
                {
                    "internalType": "bool",
                    "name": "_isSold",
                    "type": "bool"
                },
                {
                    "internalType": "address",
                    "name": "_prevOwner",
                    "type": "address"
                }
            ],
            "stateMutability": "view",
            "type": "function"
        },
        {
            "inputs": [
                {
                    "internalType": "uint256",
                    "name": "",
                    "type": "uint256"
                }
            ],
            "name": "idtobid",
            "outputs": [
                {
                    "internalType": "uint256",
                    "name": "_tokenID",
                    "type": "uint256"
                },
                {
                    "internalType": "uint256",
                    "name": "_price",
                    "type": "uint256"
                },
                {
                    "internalType": "address",
                    "name": "_buyerAddress",
                    "type": "address"
                },
                {
                    "internalType": "bool",
                    "name": "isApproved",
                    "type": "bool"
                }
            ],
            "stateMutability": "view",
            "type": "function"
        },
        {
            "inputs": [
                {
                    "internalType": "address",
                    "name": "owner",
                    "type": "address"
                },
                {
                    "internalType": "address",
                    "name": "operator",
                    "type": "address"
                }
            ],
            "name": "isApprovedForAll",
            "outputs": [
                {
                    "internalType": "bool",
                    "name": "",
                    "type": "bool"
                }
            ],
            "stateMutability": "view",
            "type": "function"
        },
        {
            "inputs": [],
            "name": "name",
            "outputs": [
                {
                    "internalType": "string",
                    "name": "",
                    "type": "string"
                }
            ],
            "stateMutability": "view",
            "type": "function"
        },
        {
            "inputs": [],
            "name": "owner",
            "outputs": [
                {
                    "internalType": "address",
                    "name": "",
                    "type": "address"
                }
            ],
            "stateMutability": "view",
            "type": "function"
        },
        {
            "inputs": [
                {
                    "internalType": "uint256",
                    "name": "tokenId",
                    "type": "uint256"
                }
            ],
            "name": "ownerOf",
            "outputs": [
                {
                    "internalType": "address",
                    "name": "",
                    "type": "address"
                }
            ],
            "stateMutability": "view",
            "type": "function"
        },
        {
            "inputs": [],
            "name": "pause",
            "outputs": [],
            "stateMutability": "nonpayable",
            "type": "function"
        },
        {
            "inputs": [],
            "name": "paused",
            "outputs": [
                {
                    "internalType": "bool",
                    "name": "",
                    "type": "bool"
                }
            ],
            "stateMutability": "view",
            "type": "function"
        },
        {
            "inputs": [],
            "name": "protocolFees",
            "outputs": [
                {
                    "internalType": "uint256",
                    "name": "",
                    "type": "uint256"
                }
            ],
            "stateMutability": "view",
            "type": "function"
        },
        {
            "inputs": [],
            "name": "renounceOwnership",
            "outputs": [],
            "stateMutability": "nonpayable",
            "type": "function"
        },
        {
            "inputs": [
                {
                    "internalType": "string",
                    "name": "_tokenURI",
                    "type": "string"
                },
                {
                    "internalType": "uint256",
                    "name": "_tokenId",
                    "type": "uint256"
                },
                {
                    "internalType": "uint256",
                    "name": "_price",
                    "type": "uint256"
                }
            ],
            "name": "safeMint",
            "outputs": [],
            "stateMutability": "nonpayable",
            "type": "function"
        },
        {
            "inputs": [
                {
                    "internalType": "address",
                    "name": "from",
                    "type": "address"
                },
                {
                    "internalType": "address",
                    "name": "to",
                    "type": "address"
                },
                {
                    "internalType": "uint256",
                    "name": "tokenId",
                    "type": "uint256"
                }
            ],
            "name": "safeTransferFrom",
            "outputs": [],
            "stateMutability": "nonpayable",
            "type": "function"
        },
        {
            "inputs": [
                {
                    "internalType": "address",
                    "name": "from",
                    "type": "address"
                },
                {
                    "internalType": "address",
                    "name": "to",
                    "type": "address"
                },
                {
                    "internalType": "uint256",
                    "name": "tokenId",
                    "type": "uint256"
                },
                {
                    "internalType": "bytes",
                    "name": "_data",
                    "type": "bytes"
                }
            ],
            "name": "safeTransferFrom",
            "outputs": [],
            "stateMutability": "nonpayable",
            "type": "function"
        },
        {
            "inputs": [
                {
                    "internalType": "uint256",
                    "name": "tokenId",
                    "type": "uint256"
                },
                {
                    "internalType": "uint256",
                    "name": "price",
                    "type": "uint256"
                }
            ],
            "name": "sellNft",
            "outputs": [],
            "stateMutability": "nonpayable",
            "type": "function"
        },
        {
            "inputs": [
                {
                    "internalType": "address",
                    "name": "operator",
                    "type": "address"
                },
                {
                    "internalType": "bool",
                    "name": "approved",
                    "type": "bool"
                }
            ],
            "name": "setApprovalForAll",
            "outputs": [],
            "stateMutability": "nonpayable",
            "type": "function"
        },
        {
            "inputs": [
                {
                    "internalType": "uint256",
                    "name": "_fees",
                    "type": "uint256"
                }
            ],
            "name": "setFees",
            "outputs": [],
            "stateMutability": "nonpayable",
            "type": "function"
        },
        {
            "inputs": [
                {
                    "internalType": "uint256",
                    "name": "_rewardAmount",
                    "type": "uint256"
                }
            ],
            "name": "setRewardAmount",
            "outputs": [],
            "stateMutability": "nonpayable",
            "type": "function"
        },
        {
            "inputs": [
                {
                    "internalType": "uint256",
                    "name": "_rewardTimeSeconds",
                    "type": "uint256"
                }
            ],
            "name": "setRewardTimeSeconds",
            "outputs": [],
            "stateMutability": "nonpayable",
            "type": "function"
        },
        {
            "inputs": [
                {
                    "internalType": "string",
                    "name": "_URI",
                    "type": "string"
                }
            ],
            "name": "setURI",
            "outputs": [],
            "stateMutability": "nonpayable",
            "type": "function"
        },
        {
            "inputs": [
                {
                    "internalType": "bool",
                    "name": "_status",
                    "type": "bool"
                }
            ],
            "name": "setcontractStatus",
            "outputs": [],
            "stateMutability": "nonpayable",
            "type": "function"
        },
        {
            "inputs": [
                {
                    "internalType": "uint256[]",
                    "name": "_tokenIDs",
                    "type": "uint256[]"
                }
            ],
            "name": "stakeNFT",
            "outputs": [],
            "stateMutability": "nonpayable",
            "type": "function"
        },
        {
            "inputs": [
                {
                    "internalType": "bytes4",
                    "name": "interfaceId",
                    "type": "bytes4"
                }
            ],
            "name": "supportsInterface",
            "outputs": [
                {
                    "internalType": "bool",
                    "name": "",
                    "type": "bool"
                }
            ],
            "stateMutability": "view",
            "type": "function"
        },
        {
            "inputs": [],
            "name": "symbol",
            "outputs": [
                {
                    "internalType": "string",
                    "name": "",
                    "type": "string"
                }
            ],
            "stateMutability": "view",
            "type": "function"
        },
        {
            "inputs": [],
            "name": "tokenContract",
            "outputs": [
                {
                    "internalType": "contract IERC20",
                    "name": "",
                    "type": "address"
                }
            ],
            "stateMutability": "view",
            "type": "function"
        },
        {
            "inputs": [
                {
                    "internalType": "uint256",
                    "name": "_tokenId",
                    "type": "uint256"
                }
            ],
            "name": "tokenURI",
            "outputs": [
                {
                    "internalType": "string",
                    "name": "",
                    "type": "string"
                }
            ],
            "stateMutability": "view",
            "type": "function"
        },
        {
            "inputs": [
                {
                    "internalType": "address",
                    "name": "from",
                    "type": "address"
                },
                {
                    "internalType": "address",
                    "name": "to",
                    "type": "address"
                },
                {
                    "internalType": "uint256",
                    "name": "tokenId",
                    "type": "uint256"
                }
            ],
            "name": "transferFrom",
            "outputs": [],
            "stateMutability": "nonpayable",
            "type": "function"
        },
        {
            "inputs": [
                {
                    "internalType": "address",
                    "name": "newOwner",
                    "type": "address"
                }
            ],
            "name": "transferOwnership",
            "outputs": [],
            "stateMutability": "nonpayable",
            "type": "function"
        },
        {
            "inputs": [],
            "name": "unpause",
            "outputs": [],
            "stateMutability": "nonpayable",
            "type": "function"
        },
        {
            "inputs": [
                {
                    "internalType": "uint256[]",
                    "name": "_tokenIDs",
                    "type": "uint256[]"
                }
            ],
            "name": "unstakeNFT",
            "outputs": [
                {
                    "internalType": "uint256",
                    "name": "",
                    "type": "uint256"
                }
            ],
            "stateMutability": "nonpayable",
            "type": "function"
        },
        {
            "inputs": [],
            "name": "withdrawAmount",
            "outputs": [],
            "stateMutability": "nonpayable",
            "type": "function"
        }
    ],
    "bytecode": "6080604052678ac7230489e80000600b55603c600c556002600d556003600e556010805460ff191660011790553480156200003957600080fd5b506040516200377c3803806200377c8339810160408190526200005c916200015d565b6040518060400160405280600b81526020016a082a6a8a482989c82aaa8b60ab1b81525060405180604001604052806007815260200166082a6a8a48298b60cb1b8152508160009081620000b1919062000234565b506001620000c0828262000234565b50506006805460ff1916905550620000d83362000103565b6001600755600a80546001600160a01b0319166001600160a01b039290921691909117905562000300565b600680546001600160a01b03838116610100818102610100600160a81b031985161790945560405193909204169182907f8be0079c531659141344cd1fd0a4f28419497f9722a3daafe3b4186f6b6457e090600090a35050565b6000602082840312156200017057600080fd5b81516001600160a01b03811681146200018857600080fd5b9392505050565b634e487b7160e01b600052604160045260246000fd5b600181811c90821680620001ba57607f821691505b602082108103620001db57634e487b7160e01b600052602260045260246000fd5b50919050565b601f8211156200022f57600081815260208120601f850160051c810160208610156200020a5750805b601f850160051c820191505b818110156200022b5782815560010162000216565b5050505b505050565b81516001600160401b038111156200025057620002506200018f565b6200026881620002618454620001a5565b84620001e1565b602080601f831160018114620002a05760008415620002875750858301515b600019600386901b1c1916600185901b1785556200022b565b600085815260208120601f198616915b82811015620002d157888601518255948401946001909101908401620002b0565b5085821015620002f05787850151600019600388901b60f8161c191681555b5050505050600190811b01905550565b61346c80620003106000396000f3fe608060405234801561001057600080fd5b50600436106102535760003560e01c80636352211e11610146578063a22cb465116100c3578063bf3dea1411610087578063bf3dea141461054c578063c6ee20d2146105d5578063c87b56dd146105e2578063e985e9c5146105f5578063ecd25b6314610631578063f2fde38b1461064457600080fd5b8063a22cb465146104ed578063a7de345214610500578063a8a65a7814610513578063b88d4fde14610526578063b9fd6e771461053957600080fd5b80638453734d1161010a5780638453734d1461043f5780638456cb59146104525780638da5cb5b1461045a57806395d89b41146104705780639b02eb161461047857600080fd5b80636352211e146103eb578063671b1b23146103fe5780636e1f94e11461041157806370a0823114610424578063715018a61461043757600080fd5b80633d18678e116101d4578063534844a211610198578063534844a21461039f578063556f8084146103a757806355a373d6146103ba57806359f48271146103cd5780635c975abb146103e057600080fd5b80633d18678e1461034b5780633f4ba83a1461035e57806342842e0e1461036657806342966c68146103795780635208eb091461038c57600080fd5b8063095ea7b31161021b578063095ea7b3146102e8578063182c5744146102fb5780631ad8b03b1461030e5780631ada2ffb1461032557806323b872dd1461033857600080fd5b806301ffc9a71461025857806302fe530514610280578063055199711461029557806306fdde03146102a8578063081812fc146102bd575b600080fd5b61026b6102663660046129cf565b610657565b60405190151581526020015b60405180910390f35b61029361028e366004612ab2565b6106a9565b005b6102936102a3366004612ae7565b6106f2565b6102b0610864565b6040516102779190612b56565b6102d06102cb366004612b69565b6108f6565b6040516001600160a01b039091168152602001610277565b6102936102f6366004612b9e565b61097e565b610293610309366004612c57565b610a8e565b610317600e5481565b604051908152602001610277565b610293610333366004612c9a565b610b5e565b610293610346366004612cca565b610d6d565b610293610359366004612b69565b610d9f565b610293610dd4565b610293610374366004612cca565b610e0e565b610293610387366004612b69565b610e29565b61029361039a366004612ae7565b610ea3565b610293610fd8565b6102936103b5366004612ae7565b611077565b600a546102d0906001600160a01b031681565b6102936103db366004612b69565b61158d565b60065460ff1661026b565b6102d06103f9366004612b69565b611631565b61029361040c366004612d06565b6116a8565b61029361041f366004612d23565b6116eb565b610317610432366004612d71565b611945565b6102936119cc565b61031761044d366004612c57565b611a06565b610293611bb5565b60065461010090046001600160a01b03166102d0565b6102b0611bed565b6104bc610486366004612b69565b6012602052600090815260409020805460018201546002909201549091906001600160a01b03811690600160a01b900460ff1684565b604051610277949392919093845260208401929092526001600160a01b031660408301521515606082015260800190565b6102936104fb366004612d8c565b611bfc565b61029361050e366004612e38565b611c07565b610293610521366004612b69565b611d13565b610293610534366004612f1c565b611d48565b610293610547366004612b69565b611d7a565b61059b61055a366004612b69565b60116020526000908152604090208054600182015460028301546003909301546001600160a01b0392831693919280831692600160a01b900460ff16911685565b604080516001600160a01b03968716815260208101959095529285169284019290925215156060830152909116608082015260a001610277565b60105461026b9060ff1681565b6102b06105f0366004612b69565b611daf565b61026b610603366004612f98565b6001600160a01b03918216600090815260056020908152604080832093909416825291909152205460ff1690565b61029361063f366004612b69565b611e87565b610293610652366004612d71565b611f9e565b60006001600160e01b031982166380ac58cd60e01b148061068857506001600160e01b03198216635b5e139f60e01b145b806106a357506301ffc9a760e01b6001600160e01b03198316145b92915050565b6006546001600160a01b036101009091041633146106e25760405162461bcd60e51b81526004016106d990612fcb565b60405180910390fd5b60096106ee8282613088565b5050565b60105460ff166107145760405162461bcd60e51b81526004016106d990613148565b61071d8261203c565b6107635760405162461bcd60e51b81526020600482015260176024820152761d1bdad95b88125108191bd95cc81b9bdd08195e1a5cdd604a1b60448201526064016106d9565b3361076d83611631565b6001600160a01b0316036107b75760405162461bcd60e51b815260206004820152601160248201527008165bdd481bdddb881d1a1a5cc81b999d607a1b60448201526064016106d9565b600082815260126020526040908190208381556001810183905560020180546001600160a81b0319163360ff60a01b1916179055600a54905163095ea7b360e01b8152306004820152602481018390526001600160a01b039091169063095ea7b3906044016020604051808303816000875af115801561083b573d6000803e3d6000fd5b505050506040513d601f19601f8201168201806040525081019061085f919061317d565b505050565b60606000805461087390613000565b80601f016020809104026020016040519081016040528092919081815260200182805461089f90613000565b80156108ec5780601f106108c1576101008083540402835291602001916108ec565b820191906000526020600020905b8154815290600101906020018083116108cf57829003601f168201915b5050505050905090565b60006109018261203c565b6109625760405162461bcd60e51b815260206004820152602c60248201527f4552433732313a20617070726f76656420717565727920666f72206e6f6e657860448201526b34b9ba32b73a103a37b5b2b760a11b60648201526084016106d9565b506000908152600460205260409020546001600160a01b031690565b600061098982611631565b9050806001600160a01b0316836001600160a01b0316036109f65760405162461bcd60e51b815260206004820152602160248201527f4552433732313a20617070726f76616c20746f2063757272656e74206f776e656044820152603960f91b60648201526084016106d9565b336001600160a01b0382161480610a125750610a128133610603565b610a845760405162461bcd60e51b815260206004820152603860248201527f4552433732313a20617070726f76652063616c6c6572206973206e6f74206f7760448201527f6e6572206e6f7220617070726f76656420666f7220616c6c000000000000000060648201526084016106d9565b61085f8383612059565b60105460ff16610ab05760405162461bcd60e51b81526004016106d990613148565b8051429060005b81811015610b5857610ae33330868481518110610ad657610ad661319a565b60200260200101516120c7565b3360009081526014602052604090208451859083908110610b0657610b0661319a565b6020908102919091018101518254600181810185556000948552838520909101919091553383526014825260408320810180549182018155835291200183905580610b50816131c6565b915050610ab7565b50505050565b600260075403610b805760405162461bcd60e51b81526004016106d9906131df565b600260075560105460ff16610ba75760405162461bcd60e51b81526004016106d990613148565b33610bb183611631565b6001600160a01b031614610c075760405162461bcd60e51b815260206004820152601760248201527f596f7520646f206e6f74206f776e2074686973204e465400000000000000000060448201526064016106d9565b6000828152601260205260409020600201546001600160a01b0316610c6e5760405162461bcd60e51b815260206004820152601d60248201527f62757965722061646472657373206973206e756c6c206164647265737300000060448201526064016106d9565b6000828152601260205260409020600201805460ff60a01b1916600160a01b8315158102919091179182905560ff9104161515600103610d6457600082815260126020526040902060020154610ccf9033906001600160a01b0316846120c7565b600a546000838152601260205260409081902060028101546001919091015491516323b872dd60e01b81526001600160a01b03938416936323b872dd93610d1f9390911691339190600401613216565b6020604051808303816000875af1158015610d3e573d6000803e3d6000fd5b505050506040513d601f19601f82011682018060405250810190610d62919061317d565b505b50506001600755565b610d78335b8261226e565b610d945760405162461bcd60e51b81526004016106d99061323a565b61085f8383836120c7565b6006546001600160a01b03610100909104163314610dcf5760405162461bcd60e51b81526004016106d990612fcb565b600e55565b6006546001600160a01b03610100909104163314610e045760405162461bcd60e51b81526004016106d990612fcb565b610e0c612358565b565b61085f83838360405180602001604052806000815250611d48565b610e3233610d72565b610e975760405162461bcd60e51b815260206004820152603060248201527f4552433732314275726e61626c653a2063616c6c6572206973206e6f74206f7760448201526f1b995c881b9bdc88185c1c1c9bdd995960821b60648201526084016106d9565b610ea0816123eb565b50565b60105460ff16610ec55760405162461bcd60e51b81526004016106d990613148565b60008111610f155760405162461bcd60e51b815260206004820152601b60248201527f5a65726f20616d6f756e742063616e6e6f7420626520616c6c6f77000000000060448201526064016106d9565b33610f1f83611631565b6001600160a01b031614610f5a5760405162461bcd60e51b81526020600482015260026024820152614e4160f01b60448201526064016106d9565b6000828152601160209081526040918290208054336001600160a01b03199091168117825560018201859055600290910180546001600160a81b031916905582518581529182018490528183015290517f7c237eea58a53f0a47c25470b6ee806c96d22ea563d6477ceb77ff0b397312639181900360600190a15050565b6006546001600160a01b036101009091041633146110085760405162461bcd60e51b81526004016106d990612fcb565b60026007540361102a5760405162461bcd60e51b81526004016106d9906131df565b60026007556006546040516001600160a01b0361010090920491909116904780156108fc02916000818181858888f1935050505015801561106f573d6000803e3d6000fd5b506001600755565b6002600754036110995760405162461bcd60e51b81526004016106d9906131df565b600260075560105460ff166110c05760405162461bcd60e51b81526004016106d990613148565b6110c98261203c565b6111065760405162461bcd60e51b815260206004820152600e60248201526d125b9d985b1a590813919508125160921b60448201526064016106d9565b6000828152601160205260409020546001600160a01b031661116a5760405162461bcd60e51b815260206004820152601e60248201527f53656c6c65722061646472657373206973204e756c6c2041646472657373000060448201526064016106d9565b600082815260116020526040902060020154600160a01b900460ff16156111e25760405162461bcd60e51b815260206004820152602660248201527f4e465420697320616c726561647920736f6c64206f722063616e63656c2062796044820152651037bbb732b960d11b60648201526084016106d9565b336111ec83611631565b6001600160a01b0316036112365760405162461bcd60e51b81526020600482015260116024820152702cb7ba9030b932903a34329037bbb732b960791b60448201526064016106d9565b600082815260116020526040902060010154811461128c5760405162461bcd60e51b8152602060048201526013602482015272125b9cdd59999a58da595b9d08105b5bdd5b9d606a1b60448201526064016106d9565b600061129783611631565b90506000600e546064846112ab919061328b565b6112b591906132ad565b90506112c181846132cc565b92506000600d546064856112d5919061328b565b6112df91906132ad565b90506112eb81856132cc565b93506113006112f986611631565b33876120c7565b600a546000868152601160205260408082205490516323b872dd60e01b815291926001600160a01b03908116926323b872dd926113469233929116908a90600401613216565b6020604051808303816000875af1158015611365573d6000803e3d6000fd5b505050506040513d601f19601f82011682018060405250810190611389919061317d565b9050806113a9576040516312171d8360e31b815260040160405180910390fd5b600a546000878152601160205260408082205490516323b872dd60e01b815291926001600160a01b03908116926323b872dd926113ef9233929116908890600401613216565b6020604051808303816000875af115801561140e573d6000803e3d6000fd5b505050506040513d601f19601f82011682018060405250810190611432919061317d565b905080611452576040516312171d8360e31b815260040160405180910390fd5b600a546040516323b872dd60e01b81526000916001600160a01b0316906323b872dd9061148790339030908a90600401613216565b6020604051808303816000875af11580156114a6573d6000803e3d6000fd5b505050506040513d601f19601f820116820180604052508101906114ca919061317d565b9050806114ea576040516312171d8360e31b815260040160405180910390fd5b600088815260116020908152604091829020600281018054600160a01b336001600160a81b0319909216821717909155600390910180546001600160a01b0319166001600160a01b038b16908117909155835190815291820152908101889052606081018990527f03c13380276d9996793198ca83e4b57c613931da9d7fa4f26b766a0358c90eb49060800160405180910390a150506001600755505050505050565b60105460ff166115af5760405162461bcd60e51b81526004016106d990613148565b336115b982611631565b6001600160a01b0316146115f45760405162461bcd60e51b81526020600482015260026024820152614e4160f01b60448201526064016106d9565b600090815260116020526040812080546001600160a01b0319168155600181019190915560020180546001600160a81b031916600160a01b179055565b6000818152600260205260408120546001600160a01b0316806106a35760405162461bcd60e51b815260206004820152602960248201527f4552433732313a206f776e657220717565727920666f72206e6f6e657869737460448201526832b73a103a37b5b2b760b91b60648201526084016106d9565b6006546001600160a01b036101009091041633146116d85760405162461bcd60e51b81526004016106d990612fcb565b6010805460ff1916911515919091179055565b60105460ff1661170d5760405162461bcd60e51b81526004016106d990613148565b600a546040516370a0823160e01b81523360048201526001600160a01b039091169063095ea7b390309083906370a0823190602401602060405180830381865afa15801561175f573d6000803e3d6000fd5b505050506040513d601f19601f8201168201806040525081019061178391906132e3565b6040516001600160e01b031960e085901b1681526001600160a01b03909216600483015260248201526044016020604051808303816000875af11580156117ce573d6000803e3d6000fd5b505050506040513d601f19601f820116820180604052508101906117f2919061317d565b50600a546040516370a0823160e01b815233600482015282916001600160a01b0316906370a0823190602401602060405180830381865afa15801561183b573d6000803e3d6000fd5b505050506040513d601f19601f8201168201806040525081019061185f91906132e3565b10156118b95760405162461bcd60e51b8152602060048201526024808201527f596f7520646f6e2774206861766520656e6f75676820746f6b656e7320746f206044820152631b5a5b9d60e21b60648201526084016106d9565b600a546040516323b872dd60e01b81526001600160a01b03909116906323b872dd906118ed90339030908690600401613216565b6020604051808303816000875af115801561190c573d6000803e3d6000fd5b505050506040513d601f19601f82011682018060405250810190611930919061317d565b5061193b3383612492565b61085f82846124ac565b60006001600160a01b0382166119b05760405162461bcd60e51b815260206004820152602a60248201527f4552433732313a2062616c616e636520717565727920666f7220746865207a65604482015269726f206164647265737360b01b60648201526084016106d9565b506001600160a01b031660009081526003602052604090205490565b6006546001600160a01b036101009091041633146119fc5760405162461bcd60e51b81526004016106d990612fcb565b610e0c60006124c4565b6000600260075403611a2a5760405162461bcd60e51b81526004016106d9906131df565b600260075560105460ff16611a515760405162461bcd60e51b81526004016106d990613148565b815142906000908190815b81811015611ae957336000908152601460205260408120600101805483908110611a8857611a8861319a565b60009182526020822001549150611a9f82886132cc565b9050600c5481611aaf919061328b565b9050611abb81876132fc565b9550611ad430338b8681518110610ad657610ad661319a565b50508080611ae1906131c6565b915050611a5c565b508281600b54611af991906132ad565b611b0391906132ad565b9150611b0e8261251e565b600a546040516323b872dd60e01b81526000916001600160a01b0316906323b872dd90611b4390309033908890600401613216565b6020604051808303816000875af1158015611b62573d6000803e3d6000fd5b505050506040513d601f19601f82011682018060405250810190611b86919061317d565b905080611ba6576040516312171d8360e31b815260040160405180910390fd5b50506001600755949350505050565b6006546001600160a01b03610100909104163314611be55760405162461bcd60e51b81526004016106d990612fcb565b610e0c612563565b60606001805461087390613000565b6106ee3383836125de565b6006546001600160a01b03610100909104163314611c375760405162461bcd60e51b81526004016106d990612fcb565b60105460ff16611c595760405162461bcd60e51b81526004016106d990613148565b8151835114611c6757600080fd5b8051835114611c7557600080fd5b825160005b81811015611d0c57611cbe858281518110611c9757611c9761319a565b6020026020010151848381518110611cb157611cb161319a565b6020026020010151612492565b611cfa838281518110611cd357611cd361319a565b6020026020010151858381518110611ced57611ced61319a565b60200260200101516124ac565b80611d04816131c6565b915050611c7a565b5050505050565b6006546001600160a01b03610100909104163314611d435760405162461bcd60e51b81526004016106d990612fcb565b600b55565b611d52338361226e565b611d6e5760405162461bcd60e51b81526004016106d99061323a565b610b58848484846126ac565b6006546001600160a01b03610100909104163314611daa5760405162461bcd60e51b81526004016106d990612fcb565b600c55565b6060611dba8261203c565b611e1e5760405162461bcd60e51b815260206004820152602f60248201527f4552433732314d657461646174613a2055524920717565727920666f72206e6f60448201526e3732bc34b9ba32b73a103a37b5b2b760891b60648201526084016106d9565b60008281526013602052604081208054611e3790613000565b905011611e5357604051806020016040528060008152506106a3565b6000828152601360209081526040918290209151611e72929101613314565b60405160208183030381529060405292915050565b60105460ff16611ea95760405162461bcd60e51b81526004016106d990613148565b611eb28161203c565b611ef85760405162461bcd60e51b81526020600482015260176024820152761d1bdad95b88125108191bd95cc81b9bdd08195e1a5cdd604a1b60448201526064016106d9565b33611f0282611631565b6001600160a01b031603611f4c5760405162461bcd60e51b815260206004820152601160248201527008165bdd481bdddb881d1a1a5cc81b999d607a1b60448201526064016106d9565b6000818152601260205260409020600201546001600160a01b03163314611f7257600080fd5b6000908152601260205260408120818155600181019190915560020180546001600160a81b0319169055565b6006546001600160a01b03610100909104163314611fce5760405162461bcd60e51b81526004016106d990612fcb565b6001600160a01b0381166120335760405162461bcd60e51b815260206004820152602660248201527f4f776e61626c653a206e6577206f776e657220697320746865207a65726f206160448201526564647265737360d01b60648201526084016106d9565b610ea0816124c4565b6000908152600260205260409020546001600160a01b0316151590565b600081815260046020526040902080546001600160a01b0319166001600160a01b038416908117909155819061208e82611631565b6001600160a01b03167f8c5be1e5ebec7d5bd14f71427d1e84f3dd0314c0f7b2291e5b200ac8c7c3b92560405160405180910390a45050565b826001600160a01b03166120da82611631565b6001600160a01b03161461213e5760405162461bcd60e51b815260206004820152602560248201527f4552433732313a207472616e736665722066726f6d20696e636f72726563742060448201526437bbb732b960d91b60648201526084016106d9565b6001600160a01b0382166121a05760405162461bcd60e51b8152602060048201526024808201527f4552433732313a207472616e7366657220746f20746865207a65726f206164646044820152637265737360e01b60648201526084016106d9565b6121ab8383836126df565b6121b6600082612059565b6001600160a01b03831660009081526003602052604081208054600192906121df9084906132cc565b90915550506001600160a01b038216600090815260036020526040812080546001929061220d9084906132fc565b909155505060008181526002602052604080822080546001600160a01b0319166001600160a01b0386811691821790925591518493918716917fddf252ad1be2c89b69c2b068fc378daa952ba7f163c4a11628f55a4df523b3ef91a4505050565b60006122798261203c565b6122da5760405162461bcd60e51b815260206004820152602c60248201527f4552433732313a206f70657261746f7220717565727920666f72206e6f6e657860448201526b34b9ba32b73a103a37b5b2b760a11b60648201526084016106d9565b60006122e583611631565b9050806001600160a01b0316846001600160a01b0316148061232c57506001600160a01b0380821660009081526005602090815260408083209388168352929052205460ff165b806123505750836001600160a01b0316612345846108f6565b6001600160a01b0316145b949350505050565b60065460ff166123a15760405162461bcd60e51b815260206004820152601460248201527314185d5cd8589b194e881b9bdd081c185d5cd95960621b60448201526064016106d9565b6006805460ff191690557f5db9ee0a495bf2e6ff9c91a7834c1ba4fdd244a5e8aa4e537bd38aeae4b073aa335b6040516001600160a01b03909116815260200160405180910390a1565b60006123f682611631565b9050612404816000846126df565b61240f600083612059565b6001600160a01b03811660009081526003602052604081208054600192906124389084906132cc565b909155505060008281526002602052604080822080546001600160a01b0319169055518391906001600160a01b038416907fddf252ad1be2c89b69c2b068fc378daa952ba7f163c4a11628f55a4df523b3ef908390a45050565b6106ee828260405180602001604052806000815250612725565b600082815260136020526040902061085f8282613088565b600680546001600160a01b03838116610100818102610100600160a81b031985161790945560405193909204169182907f8be0079c531659141344cd1fd0a4f28419497f9722a3daafe3b4186f6b6457e090600090a35050565b610ea08160405160240161253491815260200190565b60408051601f198184030181529190526020810180516001600160e01b031663f5b1bba960e01b179052612758565b60065460ff16156125a95760405162461bcd60e51b815260206004820152601060248201526f14185d5cd8589b194e881c185d5cd95960821b60448201526064016106d9565b6006805460ff191660011790557f62e78cea01bee320cd4e420270b5ea74000d11b0c9f74754ebdbfc544b05a2586123ce3390565b816001600160a01b0316836001600160a01b03160361263f5760405162461bcd60e51b815260206004820152601960248201527f4552433732313a20617070726f766520746f2063616c6c65720000000000000060448201526064016106d9565b6001600160a01b03838116600081815260056020908152604080832094871680845294825291829020805460ff191686151590811790915591519182527f17307eab39ab6107e8899845ad3d59bd9653f200f220920489ca2b5937696c31910160405180910390a3505050565b6126b78484846120c7565b6126c384848484612779565b610b585760405162461bcd60e51b81526004016106d99061338a565b60065460ff161561085f5760405162461bcd60e51b815260206004820152601060248201526f14185d5cd8589b194e881c185d5cd95960821b60448201526064016106d9565b61272f838361287a565b61273c6000848484612779565b61085f5760405162461bcd60e51b81526004016106d99061338a565b80516a636f6e736f6c652e6c6f67602083016000808483855afa5050505050565b60006001600160a01b0384163b1561286f57604051630a85bd0160e11b81526001600160a01b0385169063150b7a02906127bd9033908990889088906004016133dc565b6020604051808303816000875af19250505080156127f8575060408051601f3d908101601f191682019092526127f591810190613419565b60015b612855573d808015612826576040519150601f19603f3d011682016040523d82523d6000602084013e61282b565b606091505b50805160000361284d5760405162461bcd60e51b81526004016106d99061338a565b805181602001fd5b6001600160e01b031916630a85bd0160e11b149050612350565b506001949350505050565b6001600160a01b0382166128d05760405162461bcd60e51b815260206004820181905260248201527f4552433732313a206d696e7420746f20746865207a65726f206164647265737360448201526064016106d9565b6128d98161203c565b156129265760405162461bcd60e51b815260206004820152601c60248201527f4552433732313a20746f6b656e20616c7265616479206d696e7465640000000060448201526064016106d9565b612932600083836126df565b6001600160a01b038216600090815260036020526040812080546001929061295b9084906132fc565b909155505060008181526002602052604080822080546001600160a01b0319166001600160a01b03861690811790915590518392907fddf252ad1be2c89b69c2b068fc378daa952ba7f163c4a11628f55a4df523b3ef908290a45050565b6001600160e01b031981168114610ea057600080fd5b6000602082840312156129e157600080fd5b81356129ec816129b9565b9392505050565b634e487b7160e01b600052604160045260246000fd5b604051601f8201601f1916810167ffffffffffffffff81118282101715612a3257612a326129f3565b604052919050565b600067ffffffffffffffff831115612a5457612a546129f3565b612a67601f8401601f1916602001612a09565b9050828152838383011115612a7b57600080fd5b828260208301376000602084830101529392505050565b600082601f830112612aa357600080fd5b6129ec83833560208501612a3a565b600060208284031215612ac457600080fd5b813567ffffffffffffffff811115612adb57600080fd5b61235084828501612a92565b60008060408385031215612afa57600080fd5b50508035926020909101359150565b6000815180845260005b81811015612b2f57602081850181015186830182015201612b13565b81811115612b41576000602083870101525b50601f01601f19169290920160200192915050565b6020815260006129ec6020830184612b09565b600060208284031215612b7b57600080fd5b5035919050565b80356001600160a01b0381168114612b9957600080fd5b919050565b60008060408385031215612bb157600080fd5b612bba83612b82565b946020939093013593505050565b600067ffffffffffffffff821115612be257612be26129f3565b5060051b60200190565b600082601f830112612bfd57600080fd5b81356020612c12612c0d83612bc8565b612a09565b82815260059290921b84018101918181019086841115612c3157600080fd5b8286015b84811015612c4c5780358352918301918301612c35565b509695505050505050565b600060208284031215612c6957600080fd5b813567ffffffffffffffff811115612c8057600080fd5b61235084828501612bec565b8015158114610ea057600080fd5b60008060408385031215612cad57600080fd5b823591506020830135612cbf81612c8c565b809150509250929050565b600080600060608486031215612cdf57600080fd5b612ce884612b82565b9250612cf660208501612b82565b9150604084013590509250925092565b600060208284031215612d1857600080fd5b81356129ec81612c8c565b600080600060608486031215612d3857600080fd5b833567ffffffffffffffff811115612d4f57600080fd5b612d5b86828701612a92565b9660208601359650604090950135949350505050565b600060208284031215612d8357600080fd5b6129ec82612b82565b60008060408385031215612d9f57600080fd5b612da883612b82565b91506020830135612cbf81612c8c565b600082601f830112612dc957600080fd5b81356020612dd9612c0d83612bc8565b82815260059290921b84018101918181019086841115612df857600080fd5b8286015b84811015612c4c57803567ffffffffffffffff811115612e1c5760008081fd5b612e2a8986838b0101612a92565b845250918301918301612dfc565b600080600060608486031215612e4d57600080fd5b833567ffffffffffffffff80821115612e6557600080fd5b818601915086601f830112612e7957600080fd5b81356020612e89612c0d83612bc8565b82815260059290921b8401810191818101908a841115612ea857600080fd5b948201945b83861015612ecd57612ebe86612b82565b82529482019490820190612ead565b97505087013592505080821115612ee357600080fd5b612eef87838801612db8565b93506040860135915080821115612f0557600080fd5b50612f1286828701612bec565b9150509250925092565b60008060008060808587031215612f3257600080fd5b612f3b85612b82565b9350612f4960208601612b82565b925060408501359150606085013567ffffffffffffffff811115612f6c57600080fd5b8501601f81018713612f7d57600080fd5b612f8c87823560208401612a3a565b91505092959194509250565b60008060408385031215612fab57600080fd5b612fb483612b82565b9150612fc260208401612b82565b90509250929050565b6020808252818101527f4f776e61626c653a2063616c6c6572206973206e6f7420746865206f776e6572604082015260600190565b600181811c9082168061301457607f821691505b60208210810361303457634e487b7160e01b600052602260045260246000fd5b50919050565b601f82111561085f57600081815260208120601f850160051c810160208610156130615750805b601f850160051c820191505b818110156130805782815560010161306d565b505050505050565b815167ffffffffffffffff8111156130a2576130a26129f3565b6130b6816130b08454613000565b8461303a565b602080601f8311600181146130eb57600084156130d35750858301515b600019600386901b1c1916600185901b178555613080565b600085815260208120601f198616915b8281101561311a578886015182559484019460019091019084016130fb565b50858210156131385787850151600019600388901b60f8161c191681555b5050505050600190811b01905550565b6020808252818101527f43757272656e746c7920636f6e7472616374206973206e6f7420616374697665604082015260600190565b60006020828403121561318f57600080fd5b81516129ec81612c8c565b634e487b7160e01b600052603260045260246000fd5b634e487b7160e01b600052601160045260246000fd5b6000600182016131d8576131d86131b0565b5060010190565b6020808252601f908201527f5265656e7472616e637947756172643a207265656e7472616e742063616c6c00604082015260600190565b6001600160a01b039384168152919092166020820152604081019190915260600190565b60208082526031908201527f4552433732313a207472616e736665722063616c6c6572206973206e6f74206f6040820152701ddb995c881b9bdc88185c1c1c9bdd9959607a1b606082015260800190565b6000826132a857634e487b7160e01b600052601260045260246000fd5b500490565b60008160001904831182151516156132c7576132c76131b0565b500290565b6000828210156132de576132de6131b0565b500390565b6000602082840312156132f557600080fd5b5051919050565b6000821982111561330f5761330f6131b0565b500190565b600080835461332281613000565b6001828116801561333a576001811461334f5761337e565b60ff198416875282151583028701945061337e565b8760005260208060002060005b858110156133755781548a82015290840190820161335c565b50505082870194505b50929695505050505050565b60208082526032908201527f4552433732313a207472616e7366657220746f206e6f6e20455243373231526560408201527131b2b4bb32b91034b6b83632b6b2b73a32b960711b606082015260800190565b6001600160a01b038581168252841660208201526040810183905260806060820181905260009061340f90830184612b09565b9695505050505050565b60006020828403121561342b57600080fd5b81516129ec816129b956fea26469706673582212208ea37ecd1beab78fe7c36ef4df3e3d926c89102cc23af71ccc386adfce5bb26064736f6c634300080f0033",
    "sourcePath": "/home/avinash/Desktop/NFTContract/contracts/NFTContract.sol",
    "compiler": {
        "name": "solc",
        "version": "0.8.15+commit.e14f2714"
    },
    "functionHashes": {
        "airdropMint(address[],string[],uint256[])": "a7de3452",
        "approve(address,uint256)": "095ea7b3",
        "approveBid(uint256,bool)": "1ada2ffb",
        "balanceOf(address)": "70a08231",
        "bidNFT(uint256,uint256)": "05519971",
        "burn(uint256)": "42966c68",
        "buyNft(uint256,uint256)": "556f8084",
        "cancelBidNFT(uint256)": "ecd25b63",
        "cancelSellNft(uint256)": "59f48271",
        "contractStatus()": "c6ee20d2",
        "getApproved(uint256)": "081812fc",
        "idToDetail(uint256)": "bf3dea14",
        "idtobid(uint256)": "9b02eb16",
        "isApprovedForAll(address,address)": "e985e9c5",
        "name()": "06fdde03",
        "owner()": "8da5cb5b",
        "ownerOf(uint256)": "6352211e",
        "pause()": "8456cb59",
        "paused()": "5c975abb",
        "protocolFees()": "1ad8b03b",
        "renounceOwnership()": "715018a6",
        "safeMint(string,uint256,uint256)": "6e1f94e1",
        "safeTransferFrom(address,address,uint256)": "42842e0e",
        "safeTransferFrom(address,address,uint256,bytes)": "b88d4fde",
        "sellNft(uint256,uint256)": "5208eb09",
        "setApprovalForAll(address,bool)": "a22cb465",
        "setFees(uint256)": "3d18678e",
        "setRewardAmount(uint256)": "a8a65a78",
        "setRewardTimeSeconds(uint256)": "b9fd6e77",
        "setURI(string)": "02fe5305",
        "setcontractStatus(bool)": "671b1b23",
        "stakeNFT(uint256[])": "182c5744",
        "supportsInterface(bytes4)": "01ffc9a7",
        "symbol()": "95d89b41",
        "tokenContract()": "55a373d6",
        "tokenURI(uint256)": "c87b56dd",
        "transferFrom(address,address,uint256)": "23b872dd",
        "transferOwnership(address)": "f2fde38b",
        "unpause()": "3f4ba83a",
        "unstakeNFT(uint256[])": "8453734d",
        "withdrawAmount()": "534844a2"
    },
    "gasEstimates": {
        "creation": {
            "codeDepositCost": "2684000",
            "executionCost": "infinite",
            "totalCost": "infinite"
        },
        "external": {
            "airdropMint(address[],string[],uint256[])": "infinite",
            "approve(address,uint256)": "infinite",
            "approveBid(uint256,bool)": "infinite",
            "balanceOf(address)": "2701",
            "bidNFT(uint256,uint256)": "infinite",
            "burn(uint256)": "infinite",
            "buyNft(uint256,uint256)": "infinite",
            "cancelBidNFT(uint256)": "43529",
            "cancelSellNft(uint256)": "58292",
            "contractStatus()": "2365",
            "getApproved(uint256)": "4866",
            "idToDetail(uint256)": "9015",
            "idtobid(uint256)": "6947",
            "isApprovedForAll(address,address)": "infinite",
            "name()": "infinite",
            "owner()": "2431",
            "ownerOf(uint256)": "2602",
            "pause()": "29831",
            "paused()": "2426",
            "protocolFees()": "2385",
            "renounceOwnership()": "28284",
            "safeMint(string,uint256,uint256)": "infinite",
            "safeTransferFrom(address,address,uint256)": "infinite",
            "safeTransferFrom(address,address,uint256,bytes)": "infinite",
            "sellNft(uint256,uint256)": "77087",
            "setApprovalForAll(address,bool)": "26757",
            "setFees(uint256)": "24524",
            "setRewardAmount(uint256)": "24567",
            "setRewardTimeSeconds(uint256)": "24611",
            "setURI(string)": "infinite",
            "setcontractStatus(bool)": "26745",
            "stakeNFT(uint256[])": "infinite",
            "supportsInterface(bytes4)": "557",
            "symbol()": "infinite",
            "tokenContract()": "2426",
            "tokenURI(uint256)": "infinite",
            "transferFrom(address,address,uint256)": "infinite",
            "transferOwnership(address)": "28499",
            "unpause()": "29809",
            "unstakeNFT(uint256[])": "infinite",
            "withdrawAmount()": "infinite"
        },
        "internal": {
            "_baseURI()": "infinite",
            "_beforeTokenTransfer(address,address,uint256)": "infinite",
            "_setTokenURI(uint256,string memory)": "infinite"
        }
    }
}